:100000000C9434000C9451000C9451000C94510049
:100010000C9451000C94CF070C9451000C94510097
:100020000C9451000C9451000C9451000C9451000C
:100030000C9451000C9451000C94C3070C94510083
:100040000C9451000C9451000C948C040C945100AD
:100050000C9451000C9451000C9451000C945100DC
:100060000C9451000C94510011241FBECFEFD8E026
:10007000DEBFCDBF11E0A0E0B1E0ECEDF0E202C0E8
:1000800005900D92A431B107D9F721E0A4E1B1E0C8
:1000900001C01D92AE3AB207E1F70E94FE050C9432
:1000A000C20F0C94000090931E0180931D01609379
:1000B0001F01089590931A0180931901089581E01A
:1000C00080931601089530911F01E0911D01F09178
:1000D0001E01208181E001C0880F3A95EAF78095E2
:1000E0008223808310921601089580911601813039
:1000F00099F590911F01E0911D01F0911E01808101
:1001000021E001C0220F9A95EAF7822B808310929A
:10011000180110921701809116018F5F80931601CC
:10012000809116018330D9F590911F01E0911D0156
:10013000F0911E01808121E001C0220F9A95EAF71B
:100140008227808310921801109217018091160166
:100150008F5F80931601089580911601823001F718
:1001600080917D0180FFDCCF809117019091180173
:1001700001969093180180931701209117013091F7
:1001800018018091190190911A012817390740F23E
:1001900010921801109217010E946300C1CF809144
:1001A00016018430C1F680917D0180FFD4CF80910B
:1001B00017019091180101969093180180931701EF
:1001C0002091190130911A018217930720F2809132
:1001D00016018150BECF88274C99839508958827B2
:1001E0003599839508950F931F93CF93DF935C9A6E
:1001F00054988BEE90E08093220190932301459ACE
:100200003D988FEE90E0809326019093270187E838
:1002100093E10197F1F700C0000000E211E0C0E0B7
:10022000D0E0F8010280F381E02D0995FE01EE0F88
:10023000FF1FEE0FFF1FEF5DFE4F908180FB91F9D6
:1002400080FB92F9892F886080830C5F1F4F219774
:1002500029F4DF91CF911F910F910895C1E0D0E073
:10026000E0CF8F929F92AF92BF92CF92DF92EF92A8
:10027000FF920F931F93CF93DF9300E211E0E12CE5
:10028000F12CE701CC0FDD1FCC0FDD1FCE018F5D00
:100290009E4F6C01FC018081F80180FD30C002801E
:1002A000F381E02D0995F601908192FBAA24A0F834
:1002B000B12C082E001C00088A150B0451F0C05EFA
:1002C000DE4F80FB882782F9816099819A7F892B94
:1002D00089830C5F1F4FEA94EF2869F4DF91CF9177
:1002E0001F910F91FF90EF90DF90CF90BF90AF9054
:1002F0009F908F900895EE24E394F12CC2CF8081DB
:10030000982F9F5F843011F09083E3CF108202809A
:10031000F381E02D0995282F2170F601908192FB41
:10032000882480F8912C082E001C000888150904E8
:1003300051F420FB91F998609083CF5DDE4F888166
:100340008E7F8883C6CF20FB92F9F6CFEF92FF9283
:100350000F931F93CF93DF9300D0CDB7DEB7E82F75
:10036000CB0114BEE154EF3010F5F0E0E15AFF4E3E
:100370000C94D10ABE016F5F7F4F0E94190BAB0135
:10038000BC0140939501509396018093970170931F
:100390009801E981FA818081811109C081E40E947C
:1003A00002058BE490E00E945A000E945F000F90CB
:1003B0000F90DF91CF911F910F91FF90EF900895D3
:1003C000F894BE016F5F7F4F0E94190B60938D01FF
:1003D00070938E0180938F019093900160918D01B5
:1003E00070918E0180918F01909190012091780100
:1003F0003091790140917A0150917B010E941A0954
:100400000E948C0960939E0170939F018093A001CC
:100410009093A1017894E981FA8180818111C7CFFD
:1004200040918D0150918E0160918F0170919001EA
:1004300082E4B5CF0E94560C80938B0190938C017F
:100440000E94E90480918B0190918C010E94CF045D
:1004500060918B0170918C0183E40E94CE0508C0ED
:100460000E94560C8093890190938A010E9437055F
:100470008BE490E00E945A000F900F90DF91CF9193
:100480001F910F91FF90EF900C945F000E94560C0B
:1004900080938701909388010E94C904E9CF0E944C
:1004A000560C80938501909386010E94BD04E0CF95
:1004B0000E94560C8093830190938401BC0184E0D8
:1004C00090E00E943A0F84E090E00E94280FBC0167
:1004D00087E40E94CE058BE490E00E945A000E94BF
:1004E0005F0020E030E04AE754E460917F017091C2
:1004F000800180918101909182010E941A097B0103
:100500008C016091830170918401660F771F660FE3
:10051000771F80E090E00E94BC099B01AC01B7010D
:10052000C8010E941A096093780170937901809341
:100530007A0190937B0183E090E00F900F90DF9120
:10054000CF911F910F91FF90EF900C943705BE0152
:100550006F5F7F4F0E94190BAB01BC0140937F017D
:10056000509380018093810170938201E981FA8127
:10057000808181111CCF80E090E00E942E0F80E0EE
:1005800090E00E94220FAB01BC0188E40E940205AA
:100590008BE490E00E945A000E945F0020E030E06F
:1005A0004AE754E460917F0170918001809181015C
:1005B000909182010E941A097B018C016091830154
:1005C00070918401660F771F660F771F80E090E0BF
:1005D0000E94BC099B01AC01B701C8010E941A0925
:1005E000609378017093790180937A0190937B01F5
:1005F00083E090E00E943705DACE80917D01826031
:1006000080937D0160E070E08FE427CF80917D01D1
:10061000846080937D012CCF80917D018860F9CF2B
:1006200080917D018061F5CF80917D018062F1CF65
:10063000CF92DF92EF92FF920F931F93CF93DF93AE
:10064000CDB7DEB7A1970FB6F894DEBF0FBECDBF12
:100650000E948203F82E8030A1F0682F8E010F5F78
:100660001F4FC8010E94E403F801EF0DF11D108235
:10067000C8010E94A00C6C01E12CF12CEC14FD04CB
:100680007CF0A1960FB6F894DEBF0FBECDBFDF9110
:10069000CF911F910F91FF90EF90DF90CF90089531
:1006A000F80191918F0180914701813058F4903485
:1006B00029F41092460181E0809347018FEFE81AF8
:1006C000F80ADCCF21F49093000182E0F5CF82306C
:1006D000A9F780914601E82FF82FFF0FFF0BE85D87
:1006E000FE4F9D3051F410821092470168E271E094
:1006F000809100010E94A601E1CF90838F5F8093DB
:100700004601DCCF2FB7F89480916F0180FD07C0C0
:1007100080916E0190916D01891B2FBF089580918A
:100720006F0181FD06C090916D0180916E01805E28
:10073000F3CF90916E01F9CFE0916E01F0E0E35BB1
:10074000FE4F808380916F0180FF0BC090916E01FE
:1007500080916D01981305C080916F018260809334
:100760006F0180916E018F5F80936E01803239F44A
:1007700010926E0180916F01816080936F010895E6
:100780002FB7F894E0916D01F0E0E35BFE4F8081BC
:1007900090916D019F5F90936D0190916D019F719C
:1007A00090936D0130916D0190916E0139130AC0E3
:1007B00090916F019E7F90936F0190916F019D7F4B
:1007C00090936F012FBF0895CF92DF92EF92FF9227
:1007D0000F931F93CF93DF93EC01162F603069F0D6
:1007E00080916F0180FD13C07E01E60EF11C0E9416
:1007F000C0038993CE15DF05D1F7812FDF91CF910B
:100800001F910F91FF90EF90DF90CF90089580910E
:100810006F01846080936F0180916F0181FF04C03C
:1008200080916E0180936D01D0906D0100E20D19F1
:10083000CC2E7E010117A0F07E01E10EF11C0E947A
:10084000C0038993CE15DF05D1F780916F018B7FAF
:1008500080936F01D2CF0E94C003F70181937F0183
:100860008E2D8C198017B8F38D2D8052180F100F14
:10087000011759F37E01E00EF11C0E94C003F7013D
:1008800080830F5FF5CFFF920F931F93CF93DF937A
:10089000F090C60090916F0120914C0192FF10C022
:1008A000822F8F5F80934C01C22FC370D0E0C85B52
:1008B000DE4FF882DF91CF911F910F91FF90089545
:1008C000121684F408E411E0C22FD0E0C85BDE4FBA
:1008D000F80181918F010E949C030C171D07C1F73D
:1008E00010924C018F2DDF91CF911F910F91FF90AE
:1008F0000C949C039093C5008093C40088E9809376
:10090000C10086E08093C20008959091C00095FFD9
:10091000FCCF8093C60008951F920F920FB60F92DE
:1009200011242F933F934F935F936F937F938F93F4
:100930009F93AF93BF93EF93FF930E944304FF9164
:10094000EF91BF91AF919F918F917F916F915F9147
:100950004F913F912F910F900FBE0F901F901895C0
:10096000CF93DF93EC018881811103C0DF91CF9198
:10097000089521960E948504F6CF019711F4409ABC
:10098000089540980895019711F42A9A08952A9895
:100990000895019711F45D9A08955D980895813046
:1009A000910528F4419A429843984498089519F47F
:1009B0004198429AF9CF8230910521F441984298AA
:1009C000439AF3CF039721F4419842984398449A6D
:1009D00008958130910528F45E985F9A28982998A7
:1009E000089511F45E9AF9CF8230910529F45E9A48
:1009F0005F9A2898299A0895039791F75E9A5F98CD
:100A0000289AEDCF0F931F93CF93DF93CDB7DEB727
:100A1000EC970FB6F894DEBF0FBECDBF282FCB01E9
:100A2000BA0130E43F8F28A319A29E012F5F3F4FE8
:100A3000890122E040E00E94F90AC801B8014E96FF
:100A40000E94950C61E171E0CE014F960E94950CD9
:100A5000CE014F960E94B004EC960FB6F894DEBF1C
:100A60000FBECDBFDF91CF911F910F910895EF92EF
:100A7000FF920F931F9381309105B0F481E0809332
:100A80008701109288015D9A809187019091880179
:100A90000E94C30480917D01886080937D011F9135
:100AA0000F91FF90EF90089549F4109287011092F2
:100AB000880180E090E00E94C904E6CF8230910571
:100AC000A1F4109287011092880180E090E00E94CA
:100AD000C90480918701909188010E94C30480918C
:100AE0007D018D7F80937D01D5CF0397C1F6F8946A
:100AF0001092990110929A0110929B0110929C0100
:100B00001092A6011092A7011092A8011092A901BB
:100B10001092AA011092AB011092AC011092AD019B
:100B20006091990170919A0180919B0190919C0133
:100B3000209178013091790140917A0150917B01A7
:100B400079018A010E94BE099701A8010E94450A05
:100B5000609391017093920180939301909394011B
:100B600089E19CEFAFEFBFEF8093A2019093A301C7
:100B7000A093A401B093A5014091910150919201DD
:100B800060919301709194018DE40E94020580911F
:100B90007D01886080937D01789481CFCF93DF932E
:100BA000CDB7DEB7EC970FB6F894DEBF0FBECDBF62
:100BB000282FCB0130E43F8F28A319A24AE09E01E1
:100BC0002F5F3F4FB9010E94A90CCE010196BC01D5
:100BD0004E960E94950C61E171E0CE014F960E9405
:100BE000950CCE014F960E94B004EC960FB6F89487
:100BF000DEBF0FBECDBFDF91CF9108950E94F300FD
:100C0000569A579A209A219A229A389A399A3A9A59
:100C10003B9A3C9A559A239A63E085E290E00E94C1
:100C200053008CED95E00E945A000E945F0052989C
:100C3000539880E090E00E94220F6B017C0160934A
:100C40007F01D092800180938101F092820184E043
:100C500090E00E94280FEC0180938301D0938401DF
:100C600020E030E04AE754E4B601C7010E941A09C7
:100C70006B017C01CC0FDD1FCC0FDD1FBE0180E0BE
:100C800090E00E94BC099B01AC01B601C7010E9423
:100C90001A09609378017093790180937A01909397
:100CA0007B0116BC82E084BDC4E0C5BD8DE487BD78
:100CB00080916E00826080936E0084E090E00E94DC
:100CC0007A04C09368008CE080936D0089B18695AA
:100CD0008695837080937C01789464B770E080E59A
:100CE0000E94CE05C0E0D0E080917E0180FF0AC066
:100CF00080917E018E7F80937E0180917D01816055
:100D000080937D0180917D0180FF71C02196C43167
:100D1000D10509F06CC00E9431018091210183FF4F
:100D200032C0877F8093210190917D0191FD2BC07E
:100D300081FD29C080918B0190918C010196382F03
:100D4000292F843091051CF020E030E0C901309358
:100D50008B0120938C010E94E90480918B0190917A
:100D60008C010E94CF0460918B0170918C016330E3
:100D7000710519F083E40E94CE058BE490E00E9497
:100D80005A000E945F008091250183FF2EC0877F5B
:100D90008093250190917D0191FD27C081FD25C0A3
:100DA00080918B0190918C0101970AF4B3C0382F88
:100DB000292F30938B0120938C010E94E9048091AC
:100DC0008B0190918C010E94CF0460918B017091F6
:100DD0008C016330710519F083E40E94CE058BE429
:100DE00090E00E945A000E945F00C0E0D0E0809135
:100DF0007D0182FF0CC060918B0170918C0183E4B6
:100E00000E94CE0580917D018B7F80937D01809132
:100E10007D0183FF0CC06091890170918A0184E497
:100E20000E94CE0580917D01877F80937D01809116
:100E30007D0184FF0CC0609187017091880185E479
:100E40000E94CE0580917D018F7E80937D018091EF
:100E50007D0185FF0CC0609185017091860186E45B
:100E60000E94CE0580917D018F7D80937D018091D0
:100E70007E0181FF45C0F8940091A6011091A70161
:100E80002091A8013091A9014091AA015091AB0194
:100E90006091AC017091AD0180917D0186FF05C02C
:100EA00090917D019F7B90937D0190917E019D7F2C
:100EB00090937E01789486FD32C0C0907801D090E6
:100EC0007901E0907A01F0907B01B801C9010E949C
:100ED000BE099601A7010E94450A60939101709393
:100EE00092018093930190939401409191015091CC
:100EF000920160919301709194018DE40E9402052A
:100F00000E9418030E94750080917D018E7F80935E
:100F10007D01EACE20E033E083E090E04ACF81E03B
:100F200080939D01C0908D01D0908E01E0908F0143
:100F3000F0909001CB01BA010E94BE099601A70171
:100F40000E94450A609391017093920180939301EE
:100F5000909394014091910150919201609193017D
:100F6000709194018DE40E94020560E070E08EE4CF
:100F70000E94CE0510929D018BE490E00E945A00E1
:100F80000E945F00BDCF8F938FB78F9380917E01BA
:100F9000816080937E018F918FBF8F9118951F92F2
:100FA0000F920FB60F9211248F929F92AF92BF9221
:100FB000CF92DF92EF92FF922F933F934F935F93E5
:100FC0006F937F938F939F93AF93BF93CF93DF9351
:100FD000EF93FF9380917C01880F880F80937C01B1
:100FE00089B190917C01869586958370892B809339
:100FF0007C01E0917C01EF70F0E0EF5FFE4F20811B
:101000008091990190919A01A0919B01B0919C01CE
:10101000022E000C0008820F901DA01DB01D8093B1
:10102000990190939A01A0939B01B0939C018091A8
:101030009D01811115C08091990190919A01A09113
:101040009B01B0919C018093A6019093A701A0936E
:10105000A801B093A90180917E01826080937E01F6
:1010600080917D0181FFC2C06091990170919A01C8
:1010700080919B0190919C0120919E0130919F0154
:101080004091A0015091A1010E94B20A69017A0128
:101090008091A2019091A301A091A401B091A5011A
:1010A0008C159D05AE05BF0509F4A0C08091A20175
:1010B0009091A301A091A401B091A50149015A0109
:1010C0008C159D05AE05BF052CF08FEF881A980A88
:1010D000A80AB80A4091990150919A0160919B0128
:1010E00070919C01C0917401D0917501E0917601DD
:1010F000F09177018091AA019091AB01A091AC0190
:10110000B091AD0188159905AA05BB05F9F4CA018E
:10111000DB018C1B9D0BAE0BBF0B32F4CE01DF014C
:10112000841B950BA60BB70B8997A040B04074F4B5
:101130008091700190917101A0917201B091730141
:101140008C159D05AE05BF0509F46BC01092870193
:101150001092880180E090E00E94C904809187018C
:10116000909188010E94C3048092AA019092AB01E1
:10117000A092AC01B092AD018091990190919A0139
:10118000A0919B01B0919C01809374019093750193
:10119000A0937601B0937701C0927001D092710153
:1011A000E0927201F0927301C092A201D092A30169
:1011B000E092A401F092A50180917D01806480936A
:1011C0007D018091990190919A01A0919B01B0912C
:1011D0009C018093A6019093A701A093A801B093CE
:1011E000A90180917E01826080937E01FF91EF9141
:1011F000DF91CF91BF91AF919F918F917F916F912F
:101200005F914F913F912F91FF90EF90DF90CF90A2
:10121000BF90AF909F908F900F900FBE0F901F9038
:101220001895C092A201D092A301E092A401F0927D
:10123000A501DCCF0E942E090C940B0A0E94040A1F
:1012400058F00E94FD0940F029F45F3F29F00C940A
:10125000F40951110C943F0A0C94FA090E941C0ADB
:1012600068F39923B1F3552391F3951B550BBB27D5
:10127000AA2762177307840738F09F5F5F4F220F1A
:10128000331F441FAA1FA9F335D00E2E3AF0E0E811
:1012900032D091505040E695001CCAF72BD0FE2F5B
:1012A00029D0660F771F881FBB1F261737074807EF
:1012B000AB07B0E809F0BB0B802DBF01FF279358A7
:1012C0005F4F3AF09E3F510578F00C94F4090C946E
:1012D0003F0A5F3FE4F3983ED4F386957795679590
:1012E000B795F7959F5FC9F7880F911D96958795DC
:1012F00097F90895E1E0660F771F881FBB1F6217FB
:1013000073078407BA0720F0621B730B840BBA0BB8
:10131000EE1F88F7E09508950E9493096894B11133
:101320000C943F0A08950E94240A88F09F5798F071
:10133000B92F9927B751B0F0E1F0660F771F881FDA
:10134000991F1AF0BA95C9F714C0B13091F00E94F4
:101350003E0AB1E008950C943E0A672F782F882743
:10136000B85F39F0B93FCCF3869577956795B3951B
:10137000D9F786F70C94C90AE89404C097FB16F4D1
:101380000E94C90A9923A9F0F92F96E9BB279395E2
:10139000F695879577956795B795F111F8CFFAF49B
:1013A000BB0F11F460FF1BC06F5F7F4F8F4F9F4FCC
:1013B00016C0882311F096E911C0772321F09EE82A
:1013C000872F762F05C0662371F096E8862F70E090
:1013D00060E02AF09A95660F771F881FDAF7880F6A
:1013E0009695879597F9089597F99F6780E870E03B
:1013F00060E008959FEF80EC089500240A9416168B
:10140000170618060906089500240A9412161306F2
:10141000140605060895092E0394000C11F4882380
:1014200052F0BB0F40F4BF2B11F460FF04C06F5F9C
:101430007F4F8F4F9F4F089557FD9058440F551F72
:1014400059F05F3F71F04795880F97FB991F61F046
:101450009F3F79F087950895121613061406551FBD
:10146000F2CF4695F1DF08C0161617061806991F29
:10147000F1CF86957105610508940895E894BB271E
:1014800066277727CB0197F908950E94580A0C9494
:101490000B0A0E94FD0938F00E94040A20F09523EF
:1014A00011F00C94F4090C94FA0911240C943F0ADD
:1014B0000E941C0A70F3959FC1F3950F50E0551FD1
:1014C000629FF001729FBB27F00DB11D639FAA2799
:1014D000F00DB11DAA1F649F6627B00DA11D661FE8
:1014E000829F2227B00DA11D621F739FB00DA11D09
:1014F000621F839FA00D611D221F749F3327A00DC3
:10150000611D231F849F600D211D822F762F6A2F5E
:1015100011249F5750409AF0F1F088234AF0EE0FC3
:10152000FF1FBB1F661F771F881F91505040A9F7F0
:101530009E3F510580F00C94F4090C943F0A5F3FE4
:10154000E4F3983ED4F3869577956795B795F7952C
:10155000E7959F5FC1F7FE2B880F911D96958795A4
:1015600097F90895052E97FB1EF400940E94C90A6E
:1015700057FD07D00E94D70A07FC03D04EF40C9405
:10158000C90A50954095309521953F4F4F4F5F4F79
:10159000089590958095709561957F4F8F4F9F4FDF
:1015A0000895EE0FFF1F0590F491E02D0994A1E23C
:1015B0001A2EAA1BBB1BFD010DC0AA1FBB1FEE1FCD
:1015C000FF1FA217B307E407F50720F0A21BB30B18
:1015D000E40BF50B661F771F881F991F1A9469F794
:1015E00060957095809590959B01AC01BD01CF01F0
:1015F0000895EF920F931F93CF93DF9300D0CDB751
:10160000DEB709831A8334E147FF34E047FD419593
:10161000E32E022F242F49815A810E94E50C8981F3
:101620009A810F900F90DF91CF911F910F91EF90C2
:101630000895A0E0B0E0EFE1FBE00C94640FEC0152
:101640006B016115710519F0FB018083D1837E0167
:101650002196F7010081802F90E00E94740C5C01BC
:10166000892BA9F70D3299F5C701029608817E01F1
:10167000EC0111E043E050E060EC7FE1C7010E9423
:101680007D0C892B69F522967E0145E050E06BEBDD
:101690007FE1CE010E947D0C892B19F485E0E80ED4
:1016A000F11CC114D10419F0F601E082F182111588
:1016B00009F4F5C0812C912C30E8A32E3FEFB32E16
:1016C000B401C501CDB7DEB7E0E10C94800F0B3259
:1016D00029F4C701029608817E01EC0110E0CACF0F
:1016E00043E050E068EB7FE1C7010E947D0C892B4D
:1016F00071F4C114D10421F02296F601C083D18384
:10170000812C912C20ECA22E2FE7B22ED9CFE12CE8
:10171000F12C2701320100530A3030F5212F2260CD
:1017200012FF08C013FD03C0FFEFEF1AFF0A099173
:10173000122FF1CF13FF03C081E0E81AF108B201C4
:10174000C3010E94B40C2B013C01400E511C611CD2
:10175000711CE8E94E16E9E95E066E06E9E17E06CF
:1017600030F3212F2660E3CF0E3F29F413FD36C05E
:10177000212F2860DCCF0F7D053181F528812D32A6
:1017800041F41061AE014E5F5F4F298162E070E06D
:1017900007C0AE012B32B9F34F5F5F4F61E070E0DD
:1017A0002053EA01C61BD70B2A30C0F4F0E8AF166D
:1017B000FCE0BF0634F4C5010E94C30C5C01A20E1C
:1017C000B11CEA01299120532A3008F458C014FFB3
:1017D00003C0B194A194B108EA0CFB1C11FF07C02F
:1017E000C114D10421F02197F601C083D183B20145
:1017F000C3010E94BC094B015C011370133021F43A
:10180000B7FAB094B7F8B0942401350140E050E045
:101810009A01B401C5010E94990F811509F450CFB6
:10182000C4EBDFE1F7FE05C0F194E194F108CCE9E7
:10183000DFE16E01F8E1CF1AD10800E210E04201C9
:101840005301E016F106ECF4159507952497CC1595
:10185000DD05A9F78A2D880F8B2D881F8F3F49F052
:1018600040E050E09A01B201C3010E94990F81113A
:1018700027CF82E2809314011092150121CFAE018F
:1018800095CFFE012591359145915591B201C30146
:101890000E94450A2B013C01E01AF10AD0CF812CAD
:1018A000912C80E8A82E8FE7B82E0ACFFC0188275C
:1018B0009927E89421912032E9F3293010F02E3055
:1018C000C8F32B3241F02D3239F4689404C00E94E1
:1018D000C30C820F911D219120532A30C0F31EF4B6
:1018E000909581959F4F089591110C940F0F803220
:1018F00019F089508550C8F70895FB01DC0141506B
:10190000504088F08D9181341CF08B350CF4805E52
:10191000659161341CF06B350CF4605E861B6111BF
:1019200071F3990B0895881BFCCFFB01DC010D902E
:101930000020E9F7119701900D920020E1F708953A
:10194000FC0101900020E9F7809590958E0F9F1F74
:101950000895BB274A3031F4992322F4BDE29095D3
:1019600081959F4F0C94CC0C4AE0B72F592F649F60
:10197000B001849FC001549F900DB49F700D811DD4
:101980001124911D08957AE0979F902D879F802DB7
:10199000910D11240895BB27FB015527AA27880F15
:1019A000991FAA1FA41710F0A41B83955051B9F7D3
:1019B000A05DAA3308F0A95DA193009779F7B11152
:1019C000B1931192CB010C94120FA9E0B0E0EBEEB1
:1019D000FCE00C94680F6A01F22EB02E102F2CE35D
:1019E000021708F01BE31F5F012F27E0AE014F5FD6
:1019F0005F4F0E94370EBC012981822F89709DE2C2
:101A0000813029F0E0FA992795F9E1FC9BE2422F19
:101A1000487023FF41C084E0911101C083E08F151D
:101A2000C8F4F81AE4FE22C0911519F0F60191935A
:101A30006F01C60103962EE631E6E2FE02C02EE4F7
:101A400031E4D6012D933D932C932F2D382F492F20
:101A500050E216C0F12CE6CFF901419381509F016D
:101A60008111FACFCF0CD11CF12CDECF8F2D960136
:101A700040E2F6CFE32FF42F519321503E2F4F2F0A
:101A80002111F8CF8F0D911DFC0110828EEF9FEF79
:101A90002996ECE00C94840F322F347022FF3BC067
:101AA00084E0911101C083E08F1510F44F2D481B85
:101AB000E4FE22C0911519F0F60191936F01C60161
:101AC000039659E626E63EE6E2FE03C059E426E424
:101AD0003EE4D6015D933D932C93242F382F592F4C
:101AE00060E214C0F901519381509F018111FACF36
:101AF000C40ED11C40E0DECF842F960150E2F6CF19
:101B0000E32FF52F619321503E2F5F2F2111F8CF46
:101B1000840F911DB9CFAB0177FF02C040E050E0C8
:101B2000E1E0F0E0911101C0E0E0DA011196AE0FC2
:101B3000BF1FEB2DB114A1F05F018FEFA81AB80AF7
:101B4000AA0DBB1DAF15B10514F43F2D3A1B8E2D08
:101B50008871C9F4832F0C2DFD2CA0E2BA2E09C088
:101B6000A12CB12CEDCFA02FBF2DBD9281500A2FFB
:101B7000FB2E8111F8CFC30ED11C911107C0760145
:101B800030E080E310C0911529F0832FD6019D939A
:101B9000382F6D01E4FC0CC0932F7601F2CFD601F3
:101BA0008D9331506D013111FACF6701C90ED11CEF
:101BB000012F060F9A8124FF03C0913309F40150CD
:101BC000101694F5093008F008E0DE011196A60F12
:101BD000B71F4D01841A950ADB01A01BB1098D01C5
:101BE000EE24FF24EE1AFF0A8EE2B82E6417750762
:101BF000ECF004171507D4F4F40181814150510928
:101C0000F60131964E155F059CF0AFEF8A1A9A0ADD
:101C1000D6018C934F3F540729F4F6013296D60132
:101C20001196BC926F01E2CF01E0CFCF80E3E6CF07
:101C30006417750729F4953318F081F424FF0EC05A
:101C4000D6018C93832F9E2F2F2F40E2811108C045
:101C5000E30FF11D108280E090E01ACF81E3F0CF16
:101C6000A92FB22F4D9381509A2F2B2FEFCF2830D1
:101C700008F027E03327DA01990F311D87FD9160C5
:101C800000966105710539F432602E5F3D9330E3B3
:101C90002A95E1F708959F3F30F08038710561057E
:101CA00009F03C5F3C5F3D93913008F08068911DE6
:101CB000DF93CF931F930F93FF92EF92192F987F8B
:101CC0009695E92F96959695E90FFF27E35EFF4DD0
:101CD00099273327EE24FF24A701E70105900894F4
:101CE000079428F4360FE71EF81E491F511D660F92
:101CF000771F881F991F0694A1F70590079428F471
:101D0000E70EF81E491F561FC11D770F881F991F28
:101D1000661F0694A1F70590079428F4F80E491F52
:101D2000561FC71FD11D880F991F661F771F069466
:101D3000A1F70590079420F4490F561FC71FD81F1D
:101D4000990F661F771F881F0694A9F78491109535
:101D5000177041F0D695C79557954795F794E79436
:101D60001A95C1F7E3ECFFE1689415901591359150
:101D70006591959105907FE27395E118F10A430B07
:101D8000560BC90BD009C0F7E10CF11E431F561FBB
:101D9000C91FD01D7EF4703311F48A95E6CFE89404
:101DA000015030F0080F0AF40027021708F4202F22
:101DB0002395022F7A3328F079E37D932A95E9F76A
:101DC00010C07D932A9589F6069497956795379567
:101DD00017951794E118F10A430B560BC90BD0095C
:101DE00098F023957E9173957A3308F070E37C9395
:101DF0002013B8F77E9170617D9330F0839571E385
:101E00007D9370E32A95E1F71124EF90FF900F91F5
:101E10001F91CF91DF91992787FD9095089599277C
:101E200088270895DC01FC01672F71917723E1F782
:101E3000329704C07C916D9370836291AE17BF0797
:101E4000C8F30895A6E1B0E044E050E00C94420FDE
:101E5000A8E1B0E042E050E00C94420F0396272F37
:101E60000E94510F0E94500F252F0E94510F242FC6
:101E70000C94510F0196272F0E94510F0C94500F74
:101E8000DC01CB01FC01F999FECF06C0F2BDE1BD3A
:101E9000F89A319600B40D9241505040B8F7089529
:101EA000262FF999FECF92BD81BDF89A019700B413
:101EB000021639F01FBA20BD0FB6F894FA9AF99AB3
:101EC0000FBE08952F923F924F925F926F927F9232
:101ED0008F929F92AF92BF92CF92DF92EF92FF923A
:101EE0000F931F93CF93DF93CDB7DEB7CA1BDB0BE6
:101EF0000FB6F894DEBF0FBECDBF09942A8839888B
:101F000048885F846E847D848C849B84AA84B98491
:101F1000C884DF80EE80FD800C811B81AA81B9819D
:101F2000CE0FD11D0FB6F894DEBF0FBECDBFED01B1
:101F300008950E949E0F08F481E00895990F00080B
:101F4000550FAA0BE0E8FEEF16161706E807F9078B
:101F5000C0F012161306E407F50798F0621B730B26
:101F6000840B950B39F40A2661F0232B242B252BA7
:101F700021F408950A2609F4A140A6958FEF811D4A
:101F8000811D0895F894FFCFCDCCCC3D0AD7233CDA
:101F900017B7D13877CC2B329595E6241FB14F0A6D
:101FA000000020410000C84200401C4620BCBE4C3E
:101FB000CA1B0E5AAEC59D744E414E494E495459E6
:101FC000494E4600407A10F35A00A0724E1809009C
:101FD00010A5D4E80000E87648170000E40B54028E
:101FE0000000CA9A3B000000E1F5050000809698C9
:101FF00000000040420F000000A086010000001019
:102000002700000000E8030000000064000000005A
:10201000000A00000000000100000000002C76D83B
:1020200088DC674F0823DFC1DFAE59E1B1B796E521
:10203000E3E453C63AE651997696E8E6C28426EB85
:10204000898C9B62ED407C6FFCEFBC9C9F40F2BA98
:10205000A56FA5F490055A2AF75C936B6CF9676D30
:10206000C11BFCE0E40D47FEF520E6B500D0ED9085
:102070002E0300943577050080841E080000204E52
:102080000A000000C80C333333330F986E128311EB
:1020900041EF8D2114893BE65516CFFEE6DB18D1C2
:1020A000844B381BF77C1D901DA4BBE42420328494
:1020B000725E228100C9F124ECA1E53D2700BA013E
:1020C000E0011A02300246024F025802A70206033C
:0C20D0000C0310031403D701D701FD021C
:1020DC00200001FF00FF000001010000FF00FF01D4
:0420EC00000D0000E3
:02000004008179
:0600000000007A44F40147
:00000001FF
