:100000000C9434000C9451000C9451000C94510049
:100010000C9451000C9413060C9451000C94510054
:100020000C9451000C9451000C9451000C9451000C
:100030000C9451000C9451000C9407060C94510040
:100040000C9451000C9451000C9487040C945100B2
:100050000C9451000C9451000C9451000C945100DC
:100060000C9451000C94510011241FBECFEFD8E026
:10007000DEBFCDBF11E0A0E0B1E0EAE3F1E202C0F3
:1000800005900D92A431B107D9F721E0A4E1B1E0C8
:1000900001C01D92A13BB207E1F70E94AC070C948E
:1000A000F00F0C94000090931E0180931D0160934B
:1000B0001F01089590931A0180931901089581E01A
:1000C00080931601089530911F01E0911D01F09178
:1000D0001E01208181E001C0880F3A95EAF78095E2
:1000E0008223808310921601089580911601813039
:1000F00099F590911F01E0911D01F0911E01808101
:1001000021E001C0220F9A95EAF7822B808310929A
:10011000180110921701809116018F5F80931601CC
:10012000809116018330D9F590911F01E0911D0156
:10013000F0911E01808121E001C0220F9A95EAF71B
:100140008227808310921801109217018091160166
:100150008F5F80931601089580911601823001F718
:1001600080917C0180FFDCCF809117019091180174
:1001700001969093180180931701209117013091F7
:1001800018018091190190911A012817390740F23E
:1001900010921801109217010E946300C1CF809144
:1001A00016018430C1F680917C0180FFD4CF80910C
:1001B00017019091180101969093180180931701EF
:1001C0002091190130911A018217930720F2809132
:1001D00016018150BECF88274C99839508958827B2
:1001E0003599839508950F931F93CF93DF935C9A6E
:1001F00054988BEE90E08093220190932301459ACE
:100200003D988FEE90E0809326019093270187E838
:1002100093E10197F1F700C0000000E211E0C0E0B7
:10022000D0E0F8010280F381E02D0995FE01EE0F88
:10023000FF1FEE0FFF1FEF5DFE4F908180FB91F9D6
:1002400080FB92F9892F886080830C5F1F4F219774
:1002500029F4DF91CF911F910F910895C1E0D0E073
:10026000E0CF8F929F92AF92BF92CF92DF92EF92A8
:10027000FF920F931F93CF93DF9300E211E0E12CE5
:10028000F12CE701CC0FDD1FCC0FDD1FCE018F5D00
:100290009E4F6C01FC018081F80180FD30C002801E
:1002A000F381E02D0995F601908192FBAA24A0F834
:1002B000B12C082E001C00088A150B0451F0C05EFA
:1002C000DE4F80FB882782F9816099819A7F892B94
:1002D00089830C5F1F4FEA94EF2869F4DF91CF9177
:1002E0001F910F91FF90EF90DF90CF90BF90AF9054
:1002F0009F908F900895EE24E394F12CC2CF8081DB
:10030000982F9F5F843011F09083E3CF108202809A
:10031000F381E02D0995282F2170F601908192FB41
:10032000882480F8912C082E001C000888150904E8
:1003300051F420FB91F998609083CF5DDE4F888166
:100340008E7F8883C6CF20FB92F9F6CFCF92DF92C3
:10035000EF92FF92CF93DF9300D0CDB7DEB7E82FB7
:10036000CB0114BEE154E03168F5F0E0E357FF4EF5
:100370000C94230BBE016F5F7F4F0E946B0B6B01D0
:100380007C01E981FA81808181111CC040E050E04C
:100390009A01B601C7010E946E0A18169CF4C09219
:1003A0009401D0929501E0929601F0929701A601F6
:1003B000B70181E40E94FB048BE490E00E945A00A4
:1003C0000E945F000F900F90DF91CF91FF90EF9010
:1003D000DF90CF900895BE016F5F7F4F0E946B0B3F
:1003E0006B017C01E981FA8180818111EBCF40E0D2
:1003F00050E09A01B601C7010E946E0A181614F760
:1004000060917001709171018091720190917301FE
:1004100040E050E09A010E946E0A18169CF6209166
:100420007001309171014091720150917301B601D8
:10043000C7010E9443090E94B5091616170618063F
:1004400019060CF0BFCF2FB7F894C0928C01D09250
:100450008D01E0928E01F0928F0160939D01709367
:100460009E0180939F019093A0012FBF40918C012A
:1004700050918D0160918E0170918F0182E49ACF2D
:100480000E94A80C80938A0190938B010E94E4043F
:1004900080918A0190918B010E94CA0460918A0127
:1004A00070918B0183E40E94D70508C00E94A80CBC
:1004B00080938801909389010E9430058BE490E03D
:1004C0000E945A000F900F90DF91CF91FF90EF9014
:1004D000DF90CF900C945F000E94A80C809386015F
:1004E000909387010E94C4048091860190918701B6
:1004F0000E94BE04E3CF0E94A80C809384019093D5
:1005000085010E94B804DACF0E94A80C18161906BB
:100510000CF058CF8093820190938301BC0184E05A
:1005200090E00E948C0F84E090E00E947A0FBC0162
:1005300087E40E94D7058BE490E00E945A000E9455
:100540005F000E94460783E090E00F900F90DF91DC
:10055000CF91FF90EF90DF90CF900C943005BE01CB
:100560006F5F7F4F0E946B0B6B017C01E981FA8109
:100570008081811127CF40E050E09A01B601C70188
:100580000E946E0A18160CF01DCFC0927E01D09208
:100590007F01E0928001F0928101A601B70180E025
:1005A00090E00E94800F80E090E00E94740FAB0109
:1005B000BC0188E40E94FB048BE490E00E945A0096
:1005C0000E945F000E94460783E090E00E94300591
:1005D000F9CE81E080937B0160E070E08FE463CF2F
:1005E00081E080937A016ACF81E08093790166CFC0
:1005F00081E08093780162CF81E0809377015ECFC4
:1006000040919001509191016091920170919301FC
:1006100081E50F900F90DF91CF91FF90EF90DF90E9
:10062000CF900C94FB04CF92DF92EF92FF920F9346
:100630001F93CF93DF93CDB7DEB7A1970FB6F89492
:10064000DEBF0FBECDBF0E947D03F82E8030A1F02B
:10065000682F8E010F5F1F4FC8010E94DF03F80152
:10066000EF0DF11D1082C8010E94F20C6C01E12C0B
:10067000F12CEC14FD047CF0A1960FB6F894DEBFCB
:100680000FBECDBFDF91CF911F910F91FF90EF90E3
:10069000DF90CF900895F80191918F0180914701EB
:1006A000813058F4903429F41092460181E080930F
:1006B00047018FEFE81AF80ADCCF21F4909300018C
:1006C00082E0F5CF8230A9F780914601E82FF82F1C
:1006D000FF0FFF0BE85DFE4F9D3051F4108210922A
:1006E000470168E271E0809100010E94A601E1CF1C
:1006F00090838F5F80934601DCCF2FB7F894809171
:100700006F0180FD07C080916E0190916D01891B82
:100710002FBF089580916F0181FD06C090916D01FA
:1007200080916E01805EF3CF90916E01F9CFE091E0
:100730006E01F0E0E35BFE4F808380916F0180FFEC
:100740000BC090916E0180916D01981305C080914E
:100750006F01826080936F0180916E018F5F809343
:100760006E01803239F410926E0180916F018160C8
:1007700080936F0108952FB7F894E0916D01F0E038
:10078000E35BFE4F808190916D019F5F90936D01BF
:1007900090916D019F7190936D0130916D019091D9
:1007A0006E0139130AC090916F019E7F90936F0183
:1007B00090916F019D7F90936F012FBF0895CF920D
:1007C000DF92EF92FF920F931F93CF93DF93EC0191
:1007D000162F603069F080916F0180FD13C07E019B
:1007E000E60EF11C0E94BB038993CE15DF05D1F7FD
:1007F000812FDF91CF911F910F91FF90EF90DF90AC
:10080000CF90089580916F01846080936F018091F3
:100810006F0181FF04C080916E0180936D01D090C3
:100820006D0100E20D19CC2E7E010117A0F07E01B2
:10083000E10EF11C0E94BB038993CE15DF05D1F7B1
:1008400080916F018B7F80936F01D2CF0E94BB0399
:10085000F70181937F018E2D8C198017B8F38D2DB0
:100860008052180F100F011759F37E01E00EF11C92
:100870000E94BB03F70180830F5FF5CFFF920F93B8
:100880001F93CF93DF93F090C60090916F0120915A
:100890004C0192FF10C0822F8F5F80934C01C22FBA
:1008A000C370D0E0C85BDE4FF882DF91CF911F911B
:1008B0000F91FF900895121684F408E411E0C22FFE
:1008C000D0E0C85BDE4FF80181918F010E94970351
:1008D0000C171D07C1F710924C018F2DDF91CF919E
:1008E0001F910F91FF900C9497039093C5008093F4
:1008F000C40088E98093C10086E08093C200089517
:100900009091C00095FFFCCF8093C60008951F9280
:100910000F920FB60F9211242F933F934F935F9333
:100920006F937F938F939F93AF93BF93EF93FF93B7
:100930000E943E04FF91EF91BF91AF919F918F91E3
:100940007F916F915F914F913F912F910F900FBECB
:100950000F901F901895CF93DF93EC018881811140
:1009600003C0DF91CF91089521960E948004F6CFB5
:10097000019711F4409A089540980895019711F451
:100980002A9A08952A980895019711F45D9A089576
:100990005D9808958130910528F4419A42984398D2
:1009A0004498089519F44198429AF9CF82309105FC
:1009B00021F441984298439AF3CF039721F4419848
:1009C00042984398449A08958130910528F45E989E
:1009D0005F9A28982998089511F45E9AF9CF823089
:1009E000910521F45E9A5F9A289AF4CF039799F7BC
:1009F0005E9A5F98F9CF0F931F93CF93DF93CDB794
:100A0000DEB7EC970FB6F894DEBF0FBECDBF282F30
:100A1000CB01BA0130E43F8F28A319A29E012F5FBA
:100A20003F4F890122E040E00E944B0BC801B80112
:100A30004E960E94E70C62E171E0CE014F960E9453
:100A4000E70CCE014F960E94AB04EC960FB6F894DB
:100A5000DEBF0FBECDBFDF91CF911F910F910895E3
:100A6000EF92FF920F931F93CF9381309105B8F4CB
:100A700081E080938601109287015D9A80918601C2
:100A8000909187010E94BE0481E080937B01809356
:100A90007901CF911F910F91FF90EF90089581F40C
:100AA000109286011092870180E090E00E94C404B9
:100AB00080918601909187010E94BE0481E0E7CF7A
:100AC0008230910589F4109286011092870180E0AE
:100AD00090E00E94C40480918601909187010E9459
:100AE000BE0410927B01EACF039799F6F894109216
:100AF00098011092990110929A0110929B01109204
:100B0000A5011092A6011092A7011092A8011092BF
:100B1000A9011092AA011092AB011092AC01609150
:100B200098017091990180919A0190919B01209177
:100B300070013091710140917201509173017901FE
:100B40008A010E94E7099701A8010E94730A609335
:100B50009001709391018093920190939301109270
:100B6000AD011092AE011092AF011092B00110923F
:100B70009C011092A1011092A2011092A301109267
:100B8000A401C1E0C0931101109276011092750189
:100B90004091900150919101609192017091930167
:100BA0008DE40E94FB04C0937901789472CFCF93B7
:100BB000DF93CDB7DEB7EC970FB6F894DEBF0FBE6C
:100BC000CDBF282FCB0130E43F8F28A319A24AE0E4
:100BD0009E012F5F3F4FB9010E94FB0CCE01019691
:100BE000BC014E960E94E70C62E171E0CE014F9687
:100BF0000E94E70CCE014F960E94AB04EC960FB614
:100C0000F894DEBF0FBECDBFDF91CF9108958F93D3
:100C10008FB78F9380917D01816080937D018F914B
:100C20008FBF8F9118951F920F920FB60F921124BC
:100C30008F929F92AF92BF92CF92DF92EF92FF92EC
:100C40002F933F934F935F936F937F938F939F93D4
:100C5000AF93BF93EF93FF9380917401880F880F38
:100C60008093740189B19091740186958695837003
:100C7000892B80937401E0917401EF70F0E0EF5FD5
:100C8000FE4F20818091980190919901A0919A0145
:100C9000B0919B01022E000C0008820F901DA01D38
:100CA000B01D8093980190939901A0939A01B093FD
:100CB0009B0180919C01811113C0809198019091BA
:100CC0009901A0919A01B0919B018093A501909305
:100CD000A601A093A701B093A80181E080937501BC
:100CE0008091110181111EC080919801909199010C
:100CF000A0919A01B0919B014091AD015091AE013C
:100D00006091AF017091B001841B950BA60BB70BDE
:100D10000E96A11DB11D4D97A040B04018F081E086
:100D20008093110180919D0190919E01A0919F015E
:100D3000B091A001181619061A061B060CF084C003
:100D4000609198017091990180919A0190919B0115
:100D500020919D0130919E0140919F015091A001F1
:100D60000E94040B69017A018091A1019091A20176
:100D7000A091A301B091A4018C159D05AE05BF05FE
:100D800009F462C08091A1019091A201A091A301F8
:100D9000B091A40149015A018C159D05AE05BF050E
:100DA0002CF08FEF881A980AA80AB80A80911101CE
:100DB000803009F462C080917B01813071F410921F
:100DC00086011092870180E090E00E94C404809127
:100DD0008601909187010E94BE048092A9019092A1
:100DE000AA01A092AB01B092AC01809198019091C0
:100DF0009901A0919A01B0919B018093AD019093CC
:100E0000AE01A093AF01B093B001C092A101D09206
:100E1000A201E092A301F092A4011092110181E0DD
:100E200080937601409198015091990160919A01C7
:100E300070919B014093A5015093A6016093A70177
:100E40007093A80180937501FF91EF91BF91AF91CD
:100E50009F918F917F916F915F914F913F912F91D2
:100E6000FF90EF90DF90CF90BF90AF909F908F90CA
:100E70000F900FBE0F901F901895C092A101D092B5
:100E8000A201E092A301F092A401DECFCF92DF9203
:100E9000EF92FF9220E030E04AE754E460917E0157
:100EA00070917F0180918001909181010E9443099E
:100EB0006B017C01609182017091830180E090E080
:100EC0000E94E50920E030E040E850E40E94730A07
:100ED0009B01AC01B601C7010E9443096B017C0173
:100EE00060918C0170918D0180918E0190918F01A4
:100EF00040E050E09A010E946E0A181694F4609146
:100F00008C0170918D0180918E0190918F019601DD
:100F1000A7010E9443090E94B509DC01CB01B7FF7C
:100F200003C0A0E0B0E0CD012FB7F894C0927001EB
:100F3000D0927101E0927201F092730180939D0151
:100F400090939E01A0939F01B093A0012FBFFF90AB
:100F5000EF90DF90CF9008950E94F300569A579A31
:100F6000209A219A229A389A399A3A9A3B9A3C9A2C
:100F7000559A239A63E085E290E00E9453008CED3D
:100F800095E00E945A000E945F005298539880E0BA
:100F900090E00E94740F60937E0170937F018093B4
:100FA00080019093810184E090E00E947A0F809309
:100FB0008201909383010E94460716BC82E084BDA3
:100FC000C4E0C5BD8DE487BD80916E0082608093D2
:100FD0006E0084E090E00E947504C09368008CE08D
:100FE00080936D0089B18695869583708093740196
:100FF000789464B770E082E50E94D70500E010E0C5
:10100000C1E080917D0180FF0AC080917D018E7FCB
:1010100080937D0180917C01816080937C0180912F
:101020007C0180FF70C00F5F1F4F0431110509F074
:101030006AC00E9431018091210183FF31C0877F06
:101040008093210190917B018270892B49F58091D9
:101050008A0190918B010196382F292F84309105B8
:101060001CF020E030E0C90130938A0120938B010D
:101070000E94E40480918A0190918B010E94CA042D
:1010800060918A0170918B016330710519F083E4DE
:101090000E94D7058BE490E00E945A000E945F00F6
:1010A0008091250183FF2DC0877F8093250190913A
:1010B0007B018270892B29F580918A0190918B01A7
:1010C00001970AF4A1C0382F292F30938A01209369
:1010D0008B010E94E40480918A0190918B010E940F
:1010E000CA0460918A0170918B016330710519F017
:1010F00083E40E94D7058BE490E00E945A000E948E
:101100005F0000E010E080917A01803049F060914A
:101110008A0170918B0183E40E94D70510927A01B5
:1011200080917901803049F0609188017091890146
:1011300084E40E94D7051092790180917801803073
:1011400049F0609186017091870185E40E94D7057E
:101150001092780180917701803049F0609184018C
:101160007091850186E40E94D705109277018091E5
:101170007501803009F43EC0F8944091A50150916A
:10118000A6016091A7017091A801C090A901D0901B
:10119000AA01E090AB01F090AC0180917601811141
:1011A00010927601109275017894811132C0C0902E
:1011B0007001D0907101E0907201F0907301CB0149
:1011C000BA010E94E7099601A7010E94730A609381
:1011D00090017093910180939201909393014091BB
:1011E00090015091910160919201709193018DE471
:1011F0000E94FB040E9413030E94750080917C01F1
:101200008E7F80937C01FDCE20E033E083E090E090
:101210005CCFC0939C0180918C0190918D01A09135
:101220008E01B0918F014C015D01B601C7010E9492
:10123000E7099401A5010E94730A609390017093DD
:10124000910180939201909393014091900150916C
:10125000910160919201709193018DE40E94FB04D1
:101260001C141D041E041F045CF460E070E08EE496
:101270000E94D7058BE490E00E945A000E945F0014
:1012800010929C01B7CF0E9457090C94340A0E9417
:101290002D0A58F00E94260A40F029F45F3F29F0F9
:1012A0000C941D0A51110C94680A0C94230A0E9494
:1012B000450A68F39923B1F3552391F3951B550B18
:1012C000BB27AA2762177307840738F09F5F5F4F19
:1012D000220F331F441FAA1FA9F335D00E2E3AF058
:1012E000E0E832D091505040E695001CCAF72BD070
:1012F000FE2F29D0660F771F881FBB1F26173707C1
:101300004807AB07B0E809F0BB0B802DBF01FF27F2
:1013100093585F4F3AF09E3F510578F00C941D0AA8
:101320000C94680A5F3FE4F3983ED4F38695779572
:101330006795B795F7959F5FC9F7880F911D9695AB
:10134000879597F90895E1E0660F771F881FBB1F07
:10135000621773078407BA0720F0621B730B840BB4
:10136000BA0BEE1F88F7E09508950E94BC096894B7
:10137000B1110C94680A08950E944D0A88F09F5795
:1013800098F0B92F9927B751B0F0E1F0660F771FA9
:10139000881F991F1AF0BA95C9F714C0B13091F09F
:1013A0000E94670AB1E008950C94670A672F782FAE
:1013B0008827B85F39F0B93FCCF386957795679564
:1013C000B395D9F786F70C941B0BE89404C097FBF0
:1013D00016F40E941B0B9923A9F0F92F96E9BB275D
:1013E0009395F695879577956795B795F111F8CF11
:1013F000FAF4BB0F11F460FF1BC06F5F7F4F8F4F7C
:101400009F4F16C0882311F096E911C0772321F071
:101410009EE8872F762F05C0662371F096E8862F09
:1014200070E060E02AF09A95660F771F881FDAF760
:10143000880F9695879597F9089597F99F6780E8A3
:1014400070E060E008959FEF80EC089500240A9416
:101450001616170618060906089500240A9412168F
:101460001306140605060895092E0394000C11F4C2
:10147000882352F0BB0F40F4BF2B11F460FF04C06F
:101480006F5F7F4F8F4F9F4F089557FD9058440FC8
:10149000551F59F05F3F71F04795880F97FB991FD3
:1014A00061F09F3F79F08795089512161306140690
:1014B000551FF2CF4695F1DF08C01616170618061D
:1014C000991FF1CF86957105610508940895E894F8
:1014D000BB2766277727CB0197F908950E94E00A7A
:1014E00008F48FEF08950E94860A0C94340A0E9433
:1014F000260A38F00E942D0A20F0952311F00C9452
:101500001D0A0C94230A11240C94680A0E94450AAF
:1015100070F3959FC1F3950F50E0551F629FF00146
:10152000729FBB27F00DB11D639FAA27F00DB11D5F
:10153000AA1F649F6627B00DA11D661F829F2227E8
:10154000B00DA11D621F739FB00DA11D621F839F6F
:10155000A00D611D221F749F3327A00D611D231F45
:10156000849F600D211D822F762F6A2F11249F5793
:1015700050409AF0F1F088234AF0EE0FFF1FBB1F96
:10158000661F771F881F91505040A9F79E3F510555
:1015900080F00C941D0A0C94680A5F3FE4F3983EB7
:1015A000D4F3869577956795B795F795E7959F5FFF
:1015B000C1F7FE2B880F911D9695879597F9089591
:1015C000990F0008550FAA0BE0E8FEEF1616170654
:1015D000E807F907C0F012161306E407F50798F0BC
:1015E000621B730B840B950B39F40A2661F0232BD5
:1015F000242B252B21F408950A2609F4A140A69551
:101600008FEF811D811D0895052E97FB1EF4009418
:101610000E941B0B57FD07D00E94290B07FC03D02B
:101620004EF40C941B0B50954095309521953F4FEF
:101630004F4F5F4F089590958095709561957F4FBE
:101640008F4F9F4F0895EE0FFF1F0590F491E02DEF
:101650000994A1E21A2EAA1BBB1BFD010DC0AA1FF3
:10166000BB1FEE1FFF1FA217B307E407F50720F00B
:10167000A21BB30BE40BF50B661F771F881F991F86
:101680001A9469F760957095809590959B01AC01CF
:10169000BD01CF010895EF920F931F93CF93DF9376
:1016A00000D0CDB7DEB709831A8334E147FF34E0B9
:1016B00047FD4195E32E022F242F49815A810E9434
:1016C000370D89819A810F900F90DF91CF911F91F3
:1016D0000F91EF900895A0E0B0E0E1E7FBE00C94FB
:1016E000B60FEC016B016115710519F0FB018083E8
:1016F000D1837E012196F7010081802F90E00E9426
:10170000C60C5C01892BA9F70D3299F5C701029629
:1017100008817E01EC0111E043E050E06CE170E2F1
:10172000C7010E94CF0C892B69F522967E0145E006
:1017300050E067E170E2CE010E94CF0C892B19F4D2
:1017400085E0E80EF11CC114D10419F0F601E08225
:10175000F182111509F4F5C0812C912C30E8A32EEB
:101760003FEFB32EB401C501CDB7DEB7E0E10C9475
:10177000D20F0B3229F4C701029608817E01EC01D9
:1017800010E0CACF43E050E064E170E2C7010E947C
:10179000CF0C892B71F4C114D10421F02296F601EB
:1017A000C083D183812C912C20ECA22E2FE7B22E66
:1017B000D9CFE12CF12C2701320100530A3030F54A
:1017C000212F226012FF08C013FD03C0FFEFEF1AA4
:1017D000FF0A0991122FF1CF13FF03C081E0E81A2D
:1017E000F108B201C3010E94060D2B013C01400E1D
:1017F000511C611C711CE8E94E16E9E95E066E0693
:10180000E9E17E0630F3212F2660E3CF0E3F29F475
:1018100013FD36C0212F2860DCCF0F7D053181F507
:1018200028812D3241F41061AE014E5F5F4F298156
:1018300062E070E007C0AE012B32B9F34F5F5F4F3B
:1018400061E070E02053EA01C61BD70B2A30C0F4D8
:10185000F0E8AF16FCE0BF0634F4C5010E94150D98
:101860005C01A20EB11CEA01299120532A3008F430
:1018700058C014FF03C0B194A194B108EA0CFB1C3A
:1018800011FF07C0C114D10421F02197F601C083D4
:10189000D183B201C3010E94E5094B015C011370C1
:1018A000133021F4B7FAB094B7F8B094240135019D
:1018B00040E050E09A01B401C5010E94EB0F811590
:1018C00009F450CFC0E1D0E2F7FE05C0F194E194F5
:1018D000F108C8EFDFE16E01F8E1CF1AD10800E2AC
:1018E00010E042015301E016F106ECF4159507955E
:1018F0002497CC15DD05A9F78A2D880F8B2D881F1D
:101900008F3F49F040E050E09A01B201C3010E94CC
:10191000EB0F811127CF82E2809314011092150101
:1019200021CFAE0195CFFE0125913591459155917D
:10193000B201C3010E94730A2B013C01E01AF10AB3
:10194000D0CF812C912C80E8A82E8FE7B82E0ACF1B
:10195000FC0188279927E89421912032E9F3293066
:1019600010F02E30C8F32B3241F02D3239F4689448
:1019700004C00E94150D820F911D219120532A3021
:10198000C0F31EF4909581959F4F089591110C948A
:10199000610F803219F089508550C8F70895FB0116
:1019A000DC014150504088F08D9181341CF08B3522
:1019B0000CF4805E659161341CF06B350CF4605E54
:1019C000861B611171F3990B0895881BFCCFFB01F5
:1019D000DC010D900020E9F7119701900D92002095
:1019E000E1F70895FC0101900020E9F780959095BA
:1019F0008E0F9F1F0895BB274A3031F4992322F49C
:101A0000BDE2909581959F4F0C941E0D4AE0B72F33
:101A1000592F649FB001849FC001549F900DB49FC3
:101A2000700D811D1124911D08957AE0979F902DCE
:101A3000879F802D910D11240895BB27FB01552709
:101A4000AA27880F991FAA1FA41710F0A41B83951B
:101A50005051B9F7A05DAA3308F0A95DA193009792
:101A600079F7B111B1931192CB010C94640FA9E0F5
:101A7000B0E0EDE3FDE00C94BA0F6A01F22EB02E57
:101A8000102F2CE3021708F01BE31F5F012F27E044
:101A9000AE014F5F5F4F0E94890EBC012981822FEA
:101AA00089709DE2813029F0E0FA992795F9E1FCEF
:101AB0009BE2422F487023FF41C084E0911101C096
:101AC00083E08F15C8F4F81AE4FE22C0911519F0CE
:101AD000F60191936F01C60103962EE631E6E2FE10
:101AE00002C02EE431E4D6012D933D932C932F2D8B
:101AF000382F492F50E216C0F12CE6CFF90141935F
:101B000081509F018111FACFCF0CD11CF12CDECF77
:101B10008F2D960140E2F6CFE32FF42F5193215001
:101B20003E2F4F2F2111F8CF8F0D911DFC011082F8
:101B30008EEF9FEF2996ECE00C94D60F322F347085
:101B400022FF3BC084E0911101C083E08F1510F4A7
:101B50004F2D481BE4FE22C0911519F0F601919318
:101B60006F01C601039659E626E63EE6E2FE03C093
:101B700059E426E43EE4D6015D933D932C93242F53
:101B8000382F592F60E214C0F901519381509F0101
:101B90008111FACFC40ED11C40E0DECF842F960114
:101BA00050E2F6CFE32FF52F619321503E2F5F2FA8
:101BB0002111F8CF840F911DB9CFAB0177FF02C07F
:101BC00040E050E0E1E0F0E0911101C0E0E0DA0136
:101BD0001196AE0FBF1FEB2DB114A1F05F018FEF77
:101BE000A81AB80AAA0DBB1DAF15B10514F43F2DF4
:101BF0003A1B8E2D8871C9F4832F0C2DFD2CA0E289
:101C0000BA2E09C0A12CB12CEDCFA02FBF2DBD92B3
:101C100081500A2FFB2E8111F8CFC30ED11C9111D8
:101C200007C0760130E080E310C0911529F0832FC2
:101C3000D6019D93382F6D01E4FC0CC0932F7601E3
:101C4000F2CFD6018D9331506D013111FACF67017A
:101C5000C90ED11C012F060F9A8124FF03C09133B6
:101C600009F40150101694F5093008F008E0DE017F
:101C70001196A60FB71F4D01841A950ADB01A01B10
:101C8000B1098D01EE24FF24EE1AFF0A8EE2B82E70
:101C900064177507ECF004171507D4F4F40181817B
:101CA00041505109F60131964E155F059CF0AFEF9A
:101CB0008A1A9A0AD6018C934F3F540729F4F601E9
:101CC0003296D6011196BC926F01E2CF01E0CFCFE0
:101CD00080E3E6CF6417750729F4953318F081F493
:101CE00024FF0EC0D6018C93832F9E2F2F2F40E20E
:101CF000811108C0E30FF11D108280E090E01ACF3F
:101D000081E3F0CFA92FB22F4D9381509A2F2B2F23
:101D1000EFCF283008F027E03327DA01990F311D83
:101D200087FD916000966105710539F432602E5F80
:101D30003D9330E32A95E1F708959F3F30F08038D6
:101D40007105610509F03C5F3C5F3D93913008F0FF
:101D50008068911DDF93CF931F930F93FF92EF92B3
:101D6000192F987F9695E92F96959695E90FFF275D
:101D7000E758FF4D99273327EE24FF24A701E701F9
:101D800005900894079428F4360FE71EF81E491FA3
:101D9000511D660F771F881F991F0694A1F70590A4
:101DA000079428F4E70EF81E491F561FC11D770F30
:101DB000881F991F661F0694A1F70590079428F4C1
:101DC000F80E491F561FC71FD11D880F991F661F88
:101DD000771F0694A1F70590079420F4490F561F2A
:101DE000C71FD81F990F661F771F881F0694A9F772
:101DF00084911095177041F0D695C79557954795E2
:101E0000F794E7941A95C1F7EFE1F0E26894159022
:101E1000159135916591959105907FE27395E11843
:101E2000F10A430B560BC90BD009C0F7E10CF11EA8
:101E3000431F561FC91FD01D7EF4703311F48A95BD
:101E4000E6CFE894015030F0080F0AF4002702179B
:101E500008F4202F2395022F7A3328F079E37D931D
:101E60002A95E9F710C07D932A9589F606949795EF
:101E70006795379517951794E118F10A430B560BA0
:101E8000C90BD00998F023957E9173957A3308F0A9
:101E900070E37C932013B8F77E9170617D9330F0EE
:101EA000839571E37D9370E32A95E1F71124EF9018
:101EB000FF900F911F91CF91DF91992787FD90950A
:101EC0000895992788270895DC01FC01672F7191F7
:101ED0007723E1F7329704C07C916D937083629110
:101EE000AE17BF07C8F30895A6E1B0E044E050E0A4
:101EF0000C94940FA8E1B0E042E050E00C94940FF1
:101F00000396272F0E94A30F0E94A20F252F0E9445
:101F1000A30F242F0C94A30F0196272F0E94A30F29
:101F20000C94A20FDC01CB01FC01F999FECF06C095
:101F3000F2BDE1BDF89A319600B40D924150504087
:101F4000B8F70895262FF999FECF92BD81BDF89A72
:101F5000019700B4021639F01FBA20BD0FB6F894ED
:101F6000FA9AF99A0FBE08952F923F924F925F927C
:101F70006F927F928F929F92AF92BF92CF92DF9299
:101F8000EF92FF920F931F93CF93DF93CDB7DEB7FE
:101F9000CA1BDB0B0FB6F894DEBF0FBECDBF099492
:101FA0002A88398848885F846E847D848C849B84E9
:101FB000AA84B984C884DF80EE80FD800C811B81F7
:101FC000AA81B981CE0FD11D0FB6F894DEBF0FBE26
:101FD000CDBFED0108950E94E00A08F481E0089564
:101FE000F894FFCFCDCCCC3D0AD7233C17B7D138DE
:101FF00077CC2B329595E6241FB14F0A0000204183
:102000000000C84200401C4620BCBE4CCA1B0E5AF1
:10201000AEC59D744E414E494E495459494E4600F5
:10202000407A10F35A00A0724E18090010A5D4E8A7
:102030000000E87648170000E40B54020000CA9A3A
:102040003B000000E1F5050000809698000000408C
:10205000420F000000A086010000001027000000D1
:1020600000E803000000006400000000000A000017
:102070000000000100000000002C76D888DC674FCB
:102080000823DFC1DFAE59E1B1B796E5E3E453C6FB
:102090003AE651997696E8E6C28426EB898C9B62F3
:1020A000ED407C6FFCEFBC9C9F40F2BAA56FA5F49D
:1020B00090055A2AF75C936B6CF9676DC11BFCE0C5
:1020C000E40D47FEF520E6B500D0ED902E03009418
:1020D0003577050080841E080000204E0A000000AD
:1020E000C80C333333330F986E12831141EF8D21B7
:1020F00014893BE65516CFFEE6DB18D1844B381B1E
:10210000F77C1D901DA4BBE424203284725E2281E2
:1021100000C9F124ECA1E53D2700BA01EB01400222
:1021200056026C027B028402AF02F002F402F80253
:0A213000FC02E201E201E9020003F3
:10213A00200001FF00FF000001010000FF00FF0175
:04214A0000010D0083
:02000004008179
:0600000000007A44F40147
:00000001FF
